:100000000C942A000C9447000C9447000C94470071
:100010000C9447000C9447000C9447000C94470044
:100020000C9447000C9447000C9447000C94470034
:100030000C9447000C9447000C9447000C94470024
:100040000C9447000C9447000C9447000C94470014
:100050000C94470011241FBECFE5D8E0DEBFCDBF12
:1000600012E0A0E6B0E0E8E1FDE102C005900D92EB
:10007000A038B107D9F712E0A0E8B2E001C01D92A4
:10008000A038B107E1F70E94A10C0C948A0E0C94E1
:100090000000843409F479C0853448F48234B1F125
:1000A000833408F053C0813409F08DC00FC082360C
:1000B00069F1833620F4813609F085C007C08336A4
:1000C00009F444C0843609F07EC05FC0413069F451
:1000D0002AB381E090E0AC0102C0440F551F6A953D
:1000E000E2F7BA01622B6ABB0895442309F06BC0A2
:1000F0002AB381E090E0AC0102C0440F551F6A951D
:10010000E2F7BA01609562236ABB0895413069F451
:1001100027B381E090E0AC0102C0440F551F6A95FF
:10012000E2F7BA01622B67BB0895442309F04BC084
:1001300027B381E090E0AC0102C0440F551F6A95DF
:10014000E2F7BA016095622367BB0895413069F414
:1001500024B381E090E0AC0102C0440F551F6A95C2
:10016000E2F7BA01622B64BB0895442361F524B31E
:1001700081E090E0AC0102C0440F551F6A95E2F7A0
:10018000BA016095622364BB0895413069F421B3DC
:1001900081E090E0AC0102C0440F551F6A95E2F780
:1001A000BA01622B61BB0895442369F421B381E055
:1001B00090E0AC0102C0440F551F6A95E2F7BA0106
:1001C0006095622361BB0895843409F479C0853455
:1001D00048F48234B1F1833408F053C0813409F01B
:1001E0008DC00FC0823669F1833620F4813609F064
:1001F00085C007C0833609F444C0843609F07EC048
:100200005FC0413069F42BB381E090E0AC0102C0E3
:10021000440F551F6A95E2F7BA01622B6BBB089534
:10022000442309F06BC02BB381E090E0AC0102C025
:10023000440F551F6A95E2F7BA01609562236BBBC4
:100240000895413069F428B381E090E0AC0102C028
:10025000440F551F6A95E2F7BA01622B68BB0895F7
:10026000442309F04BC028B381E090E0AC0102C008
:10027000440F551F6A95E2F7BA016095622368BB87
:100280000895413069F425B381E090E0AC0102C0EB
:10029000440F551F6A95E2F7BA01622B65BB0895BA
:1002A000442361F525B381E090E0AC0102C0440F26
:1002B000551F6A95E2F7BA016095622365BB089500
:1002C000413069F422B381E090E0AC0102C0440FF8
:1002D000551F6A95E2F7BA01622B62BB0895442369
:1002E00069F422B381E090E0AC0102C0440F551FD5
:1002F0006A95E2F7BA016095622362BB089584347F
:1003000009F44EC0853440F4823431F18334B0F5C1
:10031000813409F057C00EC08236F1F0833620F4E4
:10032000813609F04FC006C0833641F1843609F0AA
:1003300049C036C029B381E090E0062E02C0880F84
:10034000991F0A94E2F730E08223932302C0959527
:1003500087956A95E2F7089526B381E090E0062E2E
:1003600002C0880F991F0A94E2F730E0822393239A
:1003700002C0959587956A95E2F7089523B381E0C9
:1003800090E0062E02C0880F991F0A94E2F730E031
:100390008223932302C0959587956A95E2F7089585
:1003A00020B381E090E0062E02C0880F991F0A94C6
:1003B000E2F730E08223932302C0959587956A95F2
:1003C000E2F7089580E00895843409F43DC085344F
:1003D00040F48234F9F0833450F5813409F040C0A0
:1003E0000CC08236B9F0833618F48136C9F505C0E1
:1003F0008336E9F08436A1F527C02BB381E090E085
:10040000AC0102C0440F551F6A95E2F7BA0162279A
:100410006BBB089528B381E090E0AC0102C0440FAB
:10042000551F6A95E2F7BA01622768BB089525B3A4
:1004300081E090E0AC0102C0440F551F6A95E2F7DD
:10044000BA01622765BB089522B381E090E0AC0158
:1004500002C0440F551F6A95E2F7BA01622762BBDA
:1004600008958434D9F0853438F4823499F0833493
:1004700098F48134A1F40CC0823661F0833618F40C
:10048000813669F405C0833639F0843641F406C0FC
:100490006ABB089567BB089564BB089561BB089566
:1004A0008434D9F0853438F4823499F0833498F464
:1004B0008134A1F40CC0823661F0833618F48136A1
:1004C00069F405C0833639F0843641F406C06BBB4D
:1004D000089568BB089565BB089562BB0895843490
:1004E000D9F0853438F4823499F0833498F4813427
:1004F000A9F40CC0823661F0833618F4813671F4A9
:1005000005C0833639F0843649F406C089B30895AE
:1005100086B3089583B3089580B3089580E0089565
:10052000843409F479C0853448F48234B1F18334D9
:1005300008F053C0813409F08DC00FC0823669F1D4
:10054000833620F4813609F085C007C0833609F46C
:1005500044C0843609F07EC05FC0413069F42BB3DB
:1005600081E090E0AC0102C0440F551F6A95E2F7AC
:10057000BA01622B6BBB0895442309F06BC02BB307
:1005800081E090E0AC0102C0440F551F6A95E2F78C
:10059000BA01609562236BBB0895413069F428B3BA
:1005A00081E090E0AC0102C0440F551F6A95E2F76C
:1005B000BA01622B68BB0895442309F04BC028B3ED
:1005C00081E090E0AC0102C0440F551F6A95E2F74C
:1005D000BA016095622368BB0895413069F425B380
:1005E00081E090E0AC0102C0440F551F6A95E2F72C
:1005F000BA01622B65BB0895442361F525B381E000
:1006000090E0AC0102C0440F551F6A95E2F7BA01B1
:100610006095622365BB0895413069F422B381E09F
:1006200090E0AC0102C0440F551F6A95E2F7BA0191
:10063000622B62BB0895442369F422B381E090E009
:10064000AC0102C0440F551F6A95E2F7BA016095EC
:10065000622362BB08956F70843451F1853438F49D
:100660008234C1F08334E8F4813441F50CC0823621
:1006700089F0833618F4813609F505C0833689F090
:100680008436E1F415C08BB3807F8BBB8BB3682BB2
:100690006BBB089588B3807F88BB88B3682B68BB29
:1006A000089585B3807F85BB85B3682B65BB0895AE
:1006B00082B3807F82BB82B3682B62BB0895629550
:1006C000607F843451F1853438F48234C1F083344E
:1006D000E8F4813441F50CC0823689F0833618F491
:1006E000813609F505C0833689F08436E1F415C0FA
:1006F0008BB38F708BBB8BB3682B6BBB089588B3A8
:100700008F7088BB88B3682B68BB089585B38F70E2
:1007100085BB85B3682B65BB089582B38F7082BBA0
:1007200082B3682B62BB08959FBB8EBB6DBBE29A00
:10073000E19AE199FECF08959FBB8EBBE09A8DB3FD
:1007400008950E944B0C80E390E063E00E949403C4
:1007500080E690E00E943C0C8FEF9DE3A9E481507D
:100760009040A040E1F700C0000084E463E00E94F4
:100770007D0C84E464E00E94790C0895FF920F934D
:100780001F93CF93DF9300D000D000D0CDB7DEB75A
:1007900088E00E94B70B0E944B0C83E790E00E9418
:1007A0003C0C82E061E00E94550C8CE30E941F0C1F
:1007B00082E06FE00E94550C8EE30E941F0C82E0E5
:1007C00065E00E94550C06E010E08FE50E941F0CCA
:1007D00001501040D1F78CE00E94B70B82E065E039
:1007E0000E94550C8FE00E94B70BFE01319686E007
:1007F000DF011D928A95E9F710E00F2EF5E0FF2E3C
:10080000F02D0E944F0B082F8F3FD1F00E941F0C3C
:10081000E1E0F0E0EC0FFD1FE10FF11D00831F5F31
:10082000163020F080E10E94B70B1F2D8FE79AE170
:10083000A6E081509040A040E1F700C00000E1CF69
:1008400084E460E00E948F0C813069F4153020F45C
:1008500084E10E94B70B1F5F84E460E00E948F0C6C
:100860008130D1F3CECF84E462E00E948F0C8130DE
:1008700069F4112321F080E10E94B70B115084E448
:1008800062E00E948F0C8130D1F3BBCF84E461E041
:100890000E948F0C813009F0B4CF198180E290E082
:1008A0000E949C03181771F51A8181E290E00E9462
:1008B0009C03181739F51B8182E290E00E949C038B
:1008C000181701F51C8183E290E00E949C03181721
:1008D000C9F41D8184E290E00E949C03181791F4F2
:1008E0001E8185E290E00E949C03181759F484E46D
:1008F00064E00E947D0C84E463E00E94790C0E9415
:10090000A10333C00E944B0C8CE00E94B70B86E819
:1009100090E00E943C0C82E061E00E94550C84E96A
:1009200090E00E943C0C8FEF93EDA0E3815090404B
:10093000A040E1F700C000000E944B0C83EA90E069
:100940000E943C0C82E061E00E94550C8EEA90E02F
:100950000E943C0C8FEF93EDA0E381509040A040AB
:10096000E1F700C000000E94C10426960FB6F8947B
:10097000DEBF0FBECDBFDF91CF911F910F91FF90D2
:100980000895EF92FF920F931F93CF93DF9300D0C0
:1009900000D000D0CDB7DEB788E00E94B70B0E9430
:1009A0004B0C8DEB90E00E943C0C82E061E00E94D9
:1009B000550C8CE30E941F0C82E06FE00E94550CE6
:1009C0008EE30E941F0C82E065E00E94550C06E059
:1009D00010E08FE50E941F0C01501040D1F78CE011
:1009E0000E94B70B82E065E00E94550C8FE00E94E8
:1009F000B70BFE01319686E0DF011D928A95E9F77B
:100A000010E00F2EF5E0EF2EF02D0E944F0B082F77
:100A10008F3FD1F00E941F0CE1E0F0E0EC0FFD1FD2
:100A2000E10FF11D00831F5F163020F080E10E946E
:100A3000B70B1E2D8FE79AE1A6E081509040A040B1
:100A4000E1F700C00000E1CF84E460E00E948F0C79
:100A5000813069F4153020F484E10E94B70B1F5FE8
:100A600084E460E00E948F0C8130D1F3CECF84E427
:100A700062E00E948F0C813069F4112321F080E143
:100A80000E94B70B115084E462E00E948F0C813009
:100A9000D1F3BBCF84E461E00E948F0C813009F078
:100AA000B4CF8E010F5F1F4FEE24FF246894E5F84A
:100AB000D8016D918D01C7010E9494030894E11C37
:100AC000F11CB6E2EB16F10499F784E461E00E94B0
:100AD0008F0C8130D1F30E94BE0326960FB6F89496
:100AE000DEBF0FBECDBFDF91CF911F910F91FF9061
:100AF000EF900895EF92FF920F931F93CF93DF93A0
:100B000080E490E061E00E94940384E463E00E944A
:100B10007D0C84E464E00E94790C84E465E00E942A
:100B2000790C0E944B0C8CE00E94B70B8FEC90E08C
:100B30000E943C0CCFE0D0E00F2EFAE0EF2EFF2415
:100B4000F02DCA30D1059CF082E067E00E94550C80
:100B50008C2F9D2FB7010E94630E182F862F805D6A
:100B60000E941F0C812F805D0E941F0C0BC082E031
:100B700067E00E94550C8C2F805D0E941F0C80E264
:100B80000E941F0C84E464E00E94810C84E465E010
:100B90000E94810C8FEF99E6A8E181509040A0401F
:100BA000E1F700C00000219761F60E944B0C8CE039
:100BB0000E94B70B8EED90E00E943C0C82E061E059
:100BC0000E94550C8BEE90E00E943C0C8FEF9DE351
:100BD000A9E481509040A040E1F700C0000080E30C
:100BE00090E061E00E94940380E490E060E00E9465
:100BF0009403DF91CF911F910F91FF90EF90089593
:100C0000FF920F931F93CF93DF9300D000D0CDB707
:100C1000DEB785E590E00E949C038823D9F40E940A
:100C20004B0C84EF90E00E943C0C82E061E00E945B
:100C3000550C82E091E00E943C0C8FEF9DE3A9E40B
:100C400081509040A040E1F700C000000E947A056A
:100C500080E063C180E590E00E949C03882319F541
:100C600081E590E00E949C038823E9F482E590E00E
:100C70000E949C038823B9F483E590E00E949C03C2
:100C8000882389F40E944B0C82E191E00E943C0C85
:100C90008FEF93EDA0E381509040A040E1F700C0BA
:100CA000000080E03AC188E00E94B70B0E944B0C24
:100CB0008FE191E00E943C0C82E061E00E94550CC3
:100CC0008CE30E941F0C82E06FE00E94550C8EE3C3
:100CD0000E941F0C82E065E00E94550C8FE50E9487
:100CE0001F0C8FE50E941F0C8FE50E941F0C8FE5E3
:100CF0000E941F0C8CE00E94B70B82E065E00E940E
:100D0000550C8FE00E94B70B19821A821B821C823D
:100D100000E00F2EF3E0FF2EF02D0E944F0B182F56
:100D20008F3FD1F00E941F0CE1E0F0E0EC0FFD1FBF
:100D3000E00FF11D10830F5F043020F080E10E946E
:100D4000B70B0F2D8FE79AE1A6E081509040A040AD
:100D5000E1F700C00000E1CF84E460E00E948F0C66
:100D6000813069F4033020F484E10E94B70B0F5FF7
:100D700084E460E00E948F0C8130D1F3CECF84E414
:100D800062E00E948F0C813069F4002321F080E141
:100D90000E94B70B015084E462E00E948F0C813006
:100DA000D1F3BBCF84E461E00E948F0C813009F065
:100DB000B4CF198180E590E00E949C03181709F0D8
:100DC00045C01A8181E590E00E949C031817F1F557
:100DD0001B8182E590E00E949C031817B9F51C81E5
:100DE00083E590E00E949C03181781F584E464E099
:100DF0000E947D0C84E463E00E94790C0E944B0CFD
:100E00008CE00E94B70B8CE291E00E943C0C8FEFCB
:100E10009DE3A9E481509040A040E1F700C00000AC
:100E200080E590E060E00E94940381E590E060E05E
:100E30000E94940382E590E060E00E94940383E5C1
:100E400090E060E00E94940381E067C085E590E057
:100E50000E949C03682F615085E590E00E949403F6
:100E600080E390E00E949C038823F1F40E944B0CE5
:100E70008CE00E94B70B84EF90E00E943C0C82E073
:100E800061E00E94550C82E091E00E943C0C8FEFE3
:100E90009DE3A9E481509040A040E1F700C000002C
:100EA0000E947A0580E039C00E944B0C8CE00E94C1
:100EB000B70B86E890E00E943C0C82E061E00E9463
:100EC000550C84E990E00E943C0C8FEF93EDA0E379
:100ED00081509040A040E1F700C000000E944B0C00
:100EE0008BE391E00E943C0C82E061E00E94550C93
:100EF0008BE491E00E943C0C85E590E00E949C030D
:100F0000805D0E941F0C8FEF93EDA0E38150904015
:100F1000A040E1F700C0000080E00F900F900F901C
:100F20000F90DF91CF911F910F91FF900895FF9245
:100F30000F931F93CF93DF9300D000D000D0CDB795
:100F4000DEB780E390E00E949C038823D9F40E94DE
:100F50004B0C84EF90E00E943C0C82E061E00E9428
:100F6000550C82E091E00E943C0C8FEF9DE3A9E4D8
:100F700081509040A040E1F700C000000E947A0537
:100F800080E033C188E00E94B70B0E944B0C84E5DF
:100F900091E00E943C0C82E061E00E94550C8CE3E1
:100FA0000E941F0C82E06FE00E94550C8EE30E94AD
:100FB0001F0C82E065E00E94550C06E010E08FE512
:100FC0000E941F0C01501040D1F78CE00E94B70B1B
:100FD00082E065E00E94550C8FE00E94B70BFE0195
:100FE000319686E0DF011D928A95E9F710E00F2E19
:100FF000F5E0FF2EF02D0E944F0B082F8F3FD1F010
:101000000E941F0CE1E0F0E0EC0FFD1FE10FF11D6D
:1010100000831F5F163020F080E10E94B70B1F2D68
:101020008FE79AE1A6E081509040A040E1F700C030
:101030000000E1CF84E460E00E948F0C813069F40D
:10104000153020F484E10E94B70B1F5F84E460E058
:101050000E948F0C8130D1F3CECF84E462E00E94F5
:101060008F0C813069F4112321F080E10E94B70BCD
:10107000115084E462E00E948F0C8130D1F3BBCF29
:1010800084E461E00E948F0C813009F0B4CF1981B3
:1010900080E290E00E949C03181709F03FC01A817B
:1010A00081E290E00E949C031817C1F51B8182E247
:1010B00090E00E949C03181789F51C8183E290E060
:1010C0000E949C03181751F51D8184E290E00E9454
:1010D0009C03181719F51E8185E290E00E949C037D
:1010E0001817E1F484E464E00E947D0C84E463E07A
:1010F0000E94790C0E944B0C8CE00E94B70B8CE292
:1011000091E00E943C0C8FEF9DE3A9E48150904058
:10111000A040E1F700C0000081E067C080E390E0FC
:101120000E949C03682F615080E390E00E9494032A
:1011300080E390E00E949C038823F1F40E944B0C12
:101140008CE00E94B70B84EF90E00E943C0C82E0A0
:1011500061E00E94550C82E091E00E943C0C8FEF10
:101160009DE3A9E481509040A040E1F700C0000059
:101170000E947A0580E039C00E944B0C8CE00E94EE
:10118000B70B86E890E00E943C0C82E061E00E9490
:10119000550C84E990E00E943C0C8FEF93EDA0E3A6
:1011A00081509040A040E1F700C000000E944B0C2D
:1011B0008BE391E00E943C0C82E061E00E94550CC0
:1011C0008BE491E00E943C0C80E390E00E949C0341
:1011D000805D0E941F0C8FEF93EDA0E38150904043
:1011E000A040E1F700C0000080E026960FB6F8941A
:1011F000DEBF0FBECDBFDF91CF911F910F91FF904A
:101200000895CF93DF930E944B0C8CE00E94B70BA4
:1012100083E691E00E943C0C82E061E00E94550C64
:1012200082E791E00E943C0C8FEF93EDA0E38150A8
:101230009040A040E1F700C000000E949707813075
:1012400009F077C00E944B0C8CE00E94B70B81E83C
:1012500091E00E943C0C8FEF9DE3A9E48150904007
:10126000A040E1F700C00000C0E2D0E0CE0160E0A5
:101270000E9494032196C632D105C1F785E590E01E
:1012800060E00E94940386E590E060E00E94940391
:1012900087E590E060E00E94940388E590E060E0DC
:1012A0000E94940380E390E063E00E94940388E24C
:1012B00090E060E00E94940385E590E063E00E9486
:1012C00094030E944B0C8FE891E00E943C0C82E05A
:1012D00061E00E94550C88E991E00E943C0C84E496
:1012E00063E00E94790C84E464E00E94790C84E459
:1012F00065E00E94790CC7E0D0E084E463E00E94DE
:10130000810C84E464E00E94810C84E465E00E9426
:10131000810C8FEF94E3ACE081509040A040E1F766
:1013200000C00000219749F784E466E00E947D0C2C
:101330000FC00E944B0C81EA91E00E943C0C8FEFA1
:101340009DE3A9E481509040A040E1F700C0000077
:10135000DF91CF9108950E944B0C8CE00E94B70B57
:1013600083E691E00E943C0C82E061E00E94550C13
:1013700082E791E00E943C0C8FEF93EDA0E3815057
:101380009040A040E1F700C000000E949707813024
:1013900019F40E94C10408950E944B0C8FEA91E059
:1013A0000E943C0C82E061E00E94550C8CEB91E0C5
:1013B0000E943C0C8FEF9DE3A9E481509040A04037
:1013C000E1F700C000000895EF92FF920F931F9382
:1013D000CF93DF9300D000D0CDB7DEB70E944B0C87
:1013E0008CE00E94B70B83E691E00E943C0C82E007
:1013F00061E00E94550C82E791E00E943C0C8FEF67
:1014000093EDA0E381509040A040E1F700C00000C0
:101410000E949707813009F0ECC00E944B0C88E0D5
:101420000E94B70B84EC91E00E943C0C82E061E0EA
:101430000E94550C8CE30E941F0C82E06FE00E941A
:10144000550C8EE30E941F0C82E065E00E94550C53
:101450008FE50E941F0C8FE50E941F0C8FE50E94F4
:101460001F0C8FE50E941F0C8CE00E94B70B82E0DE
:1014700065E00E94550C8FE00E94B70B19821A821A
:101480001B821C8210E00F2EF3E0EF2EF02D0E9445
:101490004F0B082F8F3FD1F00E941F0CE1E0F0E0CE
:1014A000EC0FFD1FE10FF11D00831F5F143020F0D2
:1014B00080E10E94B70B1E2D8FE79AE1A6E08150D4
:1014C0009040A040E1F700C00000E1CF84E460E07C
:1014D0000E948F0C813069F4133020F484E10E9463
:1014E000B70B1F5F84E460E00E948F0C8130D1F362
:1014F000CECF84E462E00E948F0C813069F4112326
:1015000021F080E10E94B70B115084E462E00E9458
:101510008F0C8130D1F3BBCF84E461E00E948F0C4B
:10152000813009F0B4CF8981882319F48A81882316
:1015300049F08E010F5F1F4F0F2EF0E5EF2EFF24B5
:10154000F02D24C08B818823A1F78C81882389F713
:101550000E944B0C8DEC91E00E943C0C8FEF93EDC0
:10156000A0E381509040A040E1F700C000000E943D
:101570004B0C8AED91E00E943C0C82E061E00E94FD
:10158000550C85EE91E00E943C0C41C0D8016D9154
:101590008D01C7010E9494030894E11CF11CB4E57D
:1015A000EB16F10499F785E590E063E00E9494035F
:1015B0000E944B0C8CE00E94B70B81EF91E00E94DF
:1015C0003C0C82E061E00E94550C8DEF91E00E949E
:1015D0003C0C8FEF9DE3A9E481509040A040E1F7DF
:1015E00000C0000084E461E00E948F0C8130D1F3E0
:1015F0000EC00E944B0C8AE092E00E943C0C82E0FC
:1016000061E00E94550C81E192E00E943C0C0F9039
:101610000F900F900F90DF91CF911F910F91FF903E
:10162000EF90089582E460E041E00E94490082E486
:1016300061E041E00E94490082E462E041E00E94F2
:10164000490082E463E041E00E94490082E464E0F2
:1016500040E00E94490082E465E040E00E944900C9
:1016600082E466E040E00E94490082E467E040E0F6
:101670000E94490082E464E041E00E94900282E41A
:1016800065E041E00E94900282E466E041E00E9451
:10169000900282E467E041E00E94900208950F9377
:1016A0001F93CF93DF93CDB7DEB760970FB6F89453
:1016B000DEBF0FBECDBFDE011196E9E1F2E080E1B1
:1016C00001900D928150E1F700E082E460E041E09A
:1016D0000E94E40082E461E041E00E94E40082E4D0
:1016E00062E041E00E94E40082E463E041E00E94A5
:1016F000E40082E4602F40E00E94E40010E0612FEB
:101700006C5F82E40E947F01882361F4E02FF0E0A7
:10171000EE0FFF1FEE0FFF1FE10FF11DEC0FFD1F7E
:10172000818104C01F5F143051F70BC060960FB663
:10173000F894DEBF0FBECDBFDF91CF911F910F9107
:1017400008950F5F043009F68FEFF0CF83E464E073
:1017500041E00E94E4008FE697E10197F1F700C0B5
:10176000000083E464E040E00E94E4000895CF9329
:10177000C82F682F62956F7083E40E942B0383E467
:1017800065E040E00E94E4000E94A60B8FEC97E029
:101790000197F1F700C0000083E46C2F0E942B0337
:1017A0000E94A60B8FEC97E00197F1F700C00000B4
:1017B000CF9108958FEF91EEA4E081509040A0402A
:1017C000E1F700C0000083E46FE00E94310283E48F
:1017D00064E041E00E94490083E465E041E00E944A
:1017E000490082E00E94B70BAFE0B7E21197F1F732
:1017F00000C0000088E20E94B70B8FEC97E00197D1
:10180000F1F700C000008EE00E94B70BAFECB7E02C
:101810001197F1F700C0000081E00E94B70B8FE044
:1018200097E20197F1F700C0000086E00E94B70B35
:10183000AFECB7E01197F1F700C000000895CF9327
:10184000C82F83E465E041E00E94E4006C2F6295BC
:101850006F7083E40E942B030E94A60B83E46C2F1D
:101860000E942B030E94A60B8FEC97E00197F1F7E3
:1018700000C00000CF910895CF93DF93EC018881E1
:10188000882331F021960E941F0C89918823D9F773
:10189000DF91CF91089581E00E94B70B8FE19EE424
:1018A0000197F1F700C000000895982F91509230F1
:1018B00030F4662331F0613130F490E005C098E0F7
:1018C00003C098E001C098E0813019F4962F915838
:1018D00004C0823011F4962F9154892F0E94B70BC7
:1018E000089582E00E94B70B089541E00E944900EC
:1018F000089541E00E94E400089540E00E94E40061
:1019000008950E94E40108950E947F01089540E037
:101910000E944900089540E00E94490008950E94F5
:101920007F0108950E949002089541E00E944900BD
:10193000089541E00E94E400089540E00E94E40020
:1019400008950E94DA0B0E94120B84E460E00E946A
:101950008B0C84E461E00E948B0C84E462E00E94C2
:101960008B0C84E463E00E94750C84E463E00E94C5
:10197000750C84E464E00E94750C84E465E00E94C8
:10198000750C84E466E00E94790C84E466E00E94B1
:10199000750C88E00E94B70B80E490E00E949C03E5
:1019A000813011F40E947A0581E064E00E94550CB8
:1019B00089E292E00E943C0C82E065E00E94550CB6
:1019C00085E392E00E943C0C8CE00E94B70B8FEF05
:1019D00093EDA0E381509040A040E1F700C00000EB
:1019E00084E464E00E94790C84E463E00E947D0C4E
:1019F00084E463E00E947D0C84E464E00E94790C3E
:101A000088E290E00E949C03882339F40E94C1047C
:101A100088E290E065E00E94940311E0D0E0C0E02D
:101A20000F2EF7E5EF2EF2E0FF2EF02D0F2EF2E64F
:101A3000CF2EF2E0DF2EF02D0F2EF2E7AF2EF2E0E8
:101A4000BF2EF02D0F2EFEE38F2EF2E09F2EF02DF5
:101A50000F2EFDE46F2EF2E07F2EF02D05E003C087
:101A600011E001C011E0113009F0CCC088E00E9403
:101A7000B70BD23009F457C0D33030F4DD2359F01E
:101A8000D13009F0BBC02BC0D33009F470C0D430C2
:101A900009F0B4C090C00E944B0C82E00E94B70BCA
:101AA000C4010E943C0C8CE00E94B70B82E061E014
:101AB0000E94550C8CE30E941F0C82E067E00E949C
:101AC000550C8FE40E941F0C8BE40E941F0C82E0D7
:101AD0006FE00E94550C8EE30E941F0C8FC00E9485
:101AE0004B0C82E00E94B70BC3010E943C0C8CE0BF
:101AF0000E94B70B82E061E00E94550C8CE30E94CB
:101B00001F0C82E067E00E94550C8FE40E941F0CBE
:101B10008BE40E941F0C82E06FE00E94550C8EE364
:101B20000E941F0C6BC00E944B0C82E00E94B70BFE
:101B3000C7010E943C0C8CE00E94B70B82E061E080
:101B40000E94550C8CE30E941F0C82E067E00E940B
:101B5000550C8FE40E941F0C8BE40E941F0C82E046
:101B60006FE00E94550C8EE30E941F0C47C00E943C
:101B70004B0C82E00E94B70BC6010E943C0C8CE02B
:101B80000E94B70B82E061E00E94550C8CE30E943A
:101B90001F0C82E067E00E94550C8FE40E941F0C2E
:101BA0008BE40E941F0C82E06FE00E94550C8EE3D4
:101BB0000E941F0C23C00E944B0C82E00E94B70BB6
:101BC000C5010E943C0C8CE00E94B70B82E061E0F2
:101BD0000E94550C8CE30E941F0C82E067E00E947B
:101BE000550C8FE40E941F0C8BE40E941F0C82E0B6
:101BF0006FE00E94550C8EE30E941F0C8CE00E9447
:101C0000B70B1C2F84E46C2F0E948F0C813069F479
:101C1000D43011F0DF5F01C0DC2F84E46C2F0E9410
:101C20008F0C8130D1F311E01ECF84E462E00E947A
:101C30008F0C813069F4DD2311F0D15001C0D02F19
:101C400084E462E00E948F0C8130D1F311E00BCF6D
:101C500084E461E00E948F0C813009F004CF84E4B9
:101C600061E00E948F0C8130D1F3D23001F1D3308A
:101C700030F4DD2351F0D13009F0F5CE0FC0D33070
:101C8000D1F0D43009F0EFCE1AC00E94970781300E
:101C900009F0E6CE0E94A10311E0E5CE0E94000605
:101CA000813009F0DFCE0E94A10311E0DCCE0E945A
:101CB000E40911E0D8CE0E94AB0911E0D4CE0E9415
:101CC000010911E0D0CE97FB092E07260AD077FD37
:101CD00004D00CD006D000201AF4709561957F4F87
:101CE0000895F6F7909581959F4F0895AA1BBB1B09
:101CF00051E107C0AA1FBB1FA617B70710F0A61B0C
:101D0000B70B881F991F5A95A9F780959095BC012C
:081D1000CD010895F894FFCF06
:101D18007468652073616665206973206F70656EED
:101D2800656400636F6E6669726D207061737377A6
:101D38006F72643A2000796F7520656E74657265FC
:101D48006420610077726F6E672070617373776FBC
:101D580072640063726561746520746865007061FF
:101D68007373776F726420616761696E006372656F
:101D78006174652070617373776F72643A200065CF
:101D88006D657267656E6379206D6F6F6400796F3A
:101D9800752068617665206F6E65006D6F726520CD
:101DA800747279006E6F206D6F7265207472696548
:101DB800730074727920616761696E206C61746563
:101DC80072006E6F204F545020666F756E640074F9
:101DD8006865204F54502069733A2000726967681B
:101DE800742070617373776F7264006E756D6265CD
:101DF80072206F66207472696573006C6566742062
:101E0800697320007468652070617373776F7264FA
:101E18003A20007772697465206F726967696E612C
:101E28006C0070617373776F726420666972737483
:101E380000666163746F72792072657365740061FE
:101E48006C6C206461746100636C65617265642008
:101E5800006E6F20726573657420646F6E65007024
:101E6800617373776F7264206E6F74006368616E5C
:101E7800676564004E4557204F54503A0057524FFB
:101E88004E4720464F524D415400594F552043412B
:101E9800204E4F5400454E54455220414C4C203062
:101EA800004F5450206372656174656400737563F4
:101EB8006365737366756C6C79006E6F204F545050
:101EC8000063726561746564003738392F343536BC
:101ED8002A3132332D41303D2B57454C434F4D4528
:101EE80020544F20005448452053414645007772FE
:101EF8006974652070617373776F726400777269B3
:101F08007465204F545000637265617465204F54A6
:101F180050006368616E67652070617373776F72D4
:101F28006400666163746F7279207265736574000A
:00000001FF
